:0300000002046394
:0C046300787FE4F6D8FD7581350204AA0C
:05001E00C2A4D2A522DE
:05072300D2A6C2A722CE
:05072800D2A4C2A522CD
:05072D00C2A6D2A722C4
:0607170012001E02072380
:06071D0012072802072D5F
:0906EA00C2A4C2A5D2A6C2A72237
:0906F300C2A4D2A5C2A6C2A7222E
:0906FC00C2A4C2A5C2A6C2A72235
:05073200C2A4C2A522D3
:05073700C2A6C2A722CA
:040689000214000057
:1002800012066112000E752E00752F0475160312EA
:1002900006B61206B612070E2097030203623096C6
:1002A000030203622095030203621205F8E4FFFED5
:1002B0007DF07C41AB0FAA0EA90DA80C12012C6099
:1002C000084006120717020362E4FFFE7D207C410E
:1002D000AB0FAA0EA90DA80C12012C500812071D75
:1002E0001206C4807D1206FC120622752E00752FA0
:1002F000041206A812060DAF13AE12AD11AC10AB6E
:100300000BAA0AA909A80812012C601D401BE4FFD2
:10031000FE7D207C41AB0BAA0AA909A80812012C7A
:10032000600740051206EA8033AF13AE12AD11AC80
:1003300010AB0BAA0AA909A80812012C501BE4FF54
:10034000FE7D207C41AB13AA12A911A81012012C2A
:10035000600740051206F3800312071D1206D21231
:1003600006FC2097093096063095031206FC20976C
:10037000030202952096030202953095030202952E
:1003800030A30930A20612071702029530A30920F4
:10039000A2061206F302029520A30930A206120655
:1003A000EA02029530A30302029530A203020295ED
:0603B0001206FC0202959A
:1005F800752E00752F041206A81205598F0F8E0E3E
:050608008D0D8C0C2299
:10060D00752E00752F021206A81205598F138E1222
:05061D008D118C10227C
:10062200752E00752F061206A81205598F0B8E0A19
:050632008D098C082277
:0D069A00007F087E017DF3DDFEDEFCDFFA4F
:0106A7002230
:080705007F127EEBDEFEDFFC3B
:01070D0022C9
:04073C007F04DFFE59
:010740002296
:08070E007F367EC7DEFEDFFC32
:0107160022C0
:0D06A800007F037E747D85DDFEDEFCDFFA41
:0106B5002222
:0D06B600007F037E1A7DDFDDFEDEFCDFFA33
:0106C3002214
:0D06C400007F027E0D7DEDDDFEDEFCDFFA25
:0106D1002206
:0D06D200007F027EC17D39DDFEDEFCDFFA17
:0106DF0022F8
:04068D000217000050
:1005DF00758E0175985053890F438920758DFD7560
:0905EF008DFDD28ED2AFD2AC22F8
:080003008F993099FDC299228A
:1006760012022DFF600C120003740129F9E43AFA04
:0306860080EE22E1
:030023000203B61F
:1003B600C0E0C0F0C083C082C0D075D000C000C00D
:0D03C60001C002C003C004C005C006C0078E
:1003D300309872C298AF99EF64426012EF644C6038
:1003E3000DEF64476008EF64526003BF530675174F
:1003F3000075180074192518F8A6070518E5187074
:10040300020517859925E519B447051207178026B4
:10041300E519B44C051206EA801CE519B45205121D
:1004230006F38012E519B4420512071D8008E51989
:10043300B453121206FC7E007F0C7D007B007A0011
:050443007919120254BA
:10044800D007D006D005D004D003D002D001D00008
:0B045800D0D0D082D083D0F0D0E032B2
:08069100022A0000022C000007
:100637005389F0438901758A33758CFED28CC28D3C
:05064700D2A9D2AF2290
:10064C0053890F438910758B33758DFED28EC28FF3
:05065C00D2ABD2AF2279
:03001B000204EFED
:1004EF00C0E0C0F0C083C082C0D075D000C000C0D3
:1004FF0001C002C003C004C005C006C007052DE53A
:10050F002D7002052C758B33758DFEE52D6401451D
:10051F002C700312001EE52DB52708E52CB5260318
:10052F00120732E52D6428452C7004F52CF52DD0DB
:10053F0007D006D005D004D003D002D001D000D010
:0A054F00D0D082D083D0F0D0E0328B
:100559001206E03092FDD28E2092FDC28EAF8DEF51
:10056900FEAD8B7C00E42DFDEC3EFCE41201AA7B80
:10057900487AE1798A783F1200268F358E348D3397
:100589008C327F967E437D8B7C3CAB35AA34A93374
:0A059900A832120026E4F58DF58B60
:0105A3002235
:100661005389F0438901758A33758CFED28CC28D12
:05067100D2A9D2AF2266
:03000B000205A447
:1005A400C0E0C0D00531E53170020530758A33757D
:1005B4008CFEE531640145307002D290E531B52FEF
:1005C40007E530B52E02C290E53164284530700647
:0B05D400F530F531C290D0D0D0E032FD
:0C000E0053890F438910E4F58DF58B2217
:0A06E000C291D29112073CC2912290
:10002600EC4D6011E8497017ED33EC3304600DE4D4
:10003600FCFFFEFD22E933E8330470F802021812D1
:1000460001E358046009E4CC2481500628500902D3
:10005600022228400302021FC0E0EB4A7044B98026
:1000660006D0E0FB02020EEF4E701CBD8008EBFFCF
:10007600EAFEE9FD80EBE98DF0A4FEE5F002010F52
:10008600E9CDF9EAFEEBFFEF89F0A4FCE5F0CE89B5
:10009600F0A42EFFE435F0CD89F0A42DFEE435F072
:1000A6008067EF4E7005BD80D780C3EF8BF0A4ACA0
:1000B600F0EE8BF0A42CFCE435F0F8EF8AF0A42CDB
:1000C600E5F038FCE433CB8DF0A42CFCE5F03BF8EE
:1000D600EE8AF0A42CFCE5F038F8E433CF89F0A4DE
:1000E6002CFCE5F038CF3400CE89F0A42FFFE5F0E4
:1000F6003EFEE433C98DF0A42EFEE5F039CD8AF03C
:10010600A42FFFE5F03EFEE43DFD33D0E0FB5007B3
:100116000BBB000F020222EC2CFCEF33FFEE33FE8A
:06012600ED33FD0201FAB9
:10012C0074F8CC6480CCC86480C8F58204604FC37A
:10013C00EB9FF5F0EA9E42F0E99D42F0E89C45F019
:10014C00603C501DE5825FFFE582D313CB5BCBF4A3
:10015C002B5582FB50280ABA002409B900200880CC
:10016C001DE5825BFBE582D313CF5FCFF4C3132F66
:10017C005582FF50090EBE00050DBD00010CC3EBEE
:10018C009FF5F0EA9E42F0E99D42F0E89C45F06054
:09019C0007CC4820E701B3EC2276
:1001A50075F020800E75F010800575F0087D007ED5
:1001B500007F003392D530D503120246EC33401050
:1001C500EF33FFEE33FEED33FDEC33FCD5F0ED22DE
:0E01D500E5F0247EA2D513CC92E7CDCEFF221A
:1001E300E9D2E7C933E833F892D5EDD2E7CD33EC62
:0701F30033FC5002B2D522DB
:1001FA00EC30E7100FBF000C0EBE00080DBD000466
:10020A000BEB6014A2D5EB13FCED92E7FD2274FF11
:10021A00FCFDFEFF22E480F8A2D574FF13FC7D806A
:03022A00E480EF7E
:10046F00020280E493A3F8E493A34003F68001F221
:10047F0008DFF48029E493A3F85407240CC8C3338E
:10048F00C4540F4420C8834004F456800146F6DF5D
:10049F00E4800B0102040810204080900689E47E5E
:1004AF00019360BCA3FF543F30E509541FFEE49352
:1004BF00A360010ECF54C025E060A840B8E493A319
:1004CF00FAE493A3F8E493A3C8C582C8CAC583CA44
:1004DF00F0A3C8C582C8CAC583CADFE9DEE780BEFC
:010699000060
:10022D00BB010689828A83E0225002E722BBFE02CF
:09023D00E32289828A83E4932202
:0E024600C3E49FFFE49EFEE49DFDE49CFC22C9
:10025400EF4E6012EF60010EEDBB010B89828A83C1
:10026400F0A3DFFCDEFA2289F05007F709DFFCA9CE
:0C027400F022BBFEFCF309DFFCA9F02225
:00000001FF
